:030000000214A344
:0C14A300787FE4F6D8FD75817F0214EA22
:080003000000000000000022D3
:0F1A3E00D2A4120003D2A3120003C2A30200031A
:0F1A4D00C2A3120003D2A4120003D2A30200030B
:0818CB00121A3E7FA012181151
:1018D300D2A412000330A30BE57FC394C8500405C0
:0818E3007F80F2C2A4020003A1
:10199D00D2A412000320A30BE577C3946450040571
:0819AD007780F2C2A4020003DE
:051A8B00D2A4D2A32249
:10181100C2A4120003E4FEEF30E704D2A38002C2A7
:10182100A3D2A4120003EF25E0FFC2A41200030E0D
:08183100BE08E4D2A30200038B
:10188600C2A4120003D2A3120003E4FED2A41200E3
:1018960003EF25E0FF30A3010FC2A41200030EBE22
:0218A60008EA4E
:0118A800221D
:1019B500AC071218CBAF041218111218D3AF0512C9
:0819C50018111218D3021A4D8B
:0218A900AD0789
:1018AB001218CBAF051218111218D3121A3E7FA1C2
:0F18BB001218111218D312188612199D121A4DF5
:0118CA0022FB
:100F38000D0A0D0A0D0A0D0A00746865206C6173AC
:100F480074207265636F72642074696D653A0D0A66
:100F580000746865206C617374207265636F7264D5
:100F6800207374616E646172643A0D0A0074686576
:100F7800206572726F723A002020207468652077AD
:100F880065696768743A006B6700746865206C610E
:100F98007374207265636F726420646174613A0DC2
:100FA8000A007468652073756D3A00202020746803
:100FB80065206261643A00746865206465746169DB
:100FC8006C20646174613A0D0A0074686520746964
:100FD8006D65733A200020746865207765696768D5
:100FE800743A20006B670D0A004D4F4445203100CC
:100FF8004D4F44452032004D41583A005745494726
:1010080048543A004B47004D4F4445203300455261
:10101800524F523A0053554D3A00534156494E47A4
:1010280020444154412E2E2E00746865206C617353
:10103800742074696D653A005354443A2000204581
:1010480052524F523A005745494748543A202020B7
:1010580000444154413A002053554D3A004241441E
:101068003A0073656E6420646174613F00594553AA
:10107800202020202020202020204E4F0074656D45
:1010880070657261747572653A0053454E44494EF5
:10109800472E2E2E2E0053454E442053554343458C
:1010A8004553532100505245535320414E4420424A
:1010B80041434B2E2E000A141E000A003200640021
:0510C8009600C800FACB
:1016FA00012900022A0000022C000004390000011E
:10170A0090042400000000022E0000013D00012880
:10171A0000015B0A01576408310000000000000064
:0A172A00000121000122000123004C
:0F1A1E00EF7F08A2E092A7D2A6C2A6C313DFF4FF
:011A2D002296
:0F1A2E007F08C313A2A792E7D2A6C2A6DFF4FFD8
:011A3D002286
:1019E300AE05C2A5C2A6D2A5121A1EAF06121A1EB2
:0519F300D2A6C2A522EE
:1019F800C2A5C2A6D2A5EF4401FF121A1E121A2EC2
:041A0800D2A6C2A5FB
:011A0C0022B7
:0F1A5C003000047D108002E4FD7F8E1219E3221A
:1018EB00AC05AB07C200121A5CAF03EC75F00A84AF
:1018FB00C454F0FEEC75F00A84E5F04EFD0219E3DA
:101359007F801219F8EF5470C4540F75F00AA4FE77
:10136900EF540F2E1207F27F821219F8EF5470C44E
:10137900540F75F00AA4FEEF540F2E9000011208C5
:10138900047F841219F8EF5470C4540F75F00AA43D
:10139900FEEF540F2E9000021208047F861219F8EE
:1013A900EF5470C4540F75F00AA4FEEF540F2E9039
:1013B90000041208047F8A1219F8EF5470C4540FFC
:1013C90075F00AA4FEEF540F2E9000031208047F53
:1013D900881219F8EF5470C4540F75F00AA4FEEF7F
:1013E900540F2E9000051208047F8C1219F8EF543F
:1013F90070C4540F75F00AA4FEEF540F2E90000626
:03140900020804D2
:1010CD001207ACFF75F00A84E5F02404FEEF75F00D
:1010DD000A84FFA806088002C333D8FCF5089000E7
:1010ED00011207C5FF75F00A84E5F02404FEEF75C3
:1010FD00F00A84FFA806088002C333D8FCF50990D6
:10110D0000021207C5FF75F00A84E5F02404FEEF16
:10111D0075F00A84FFA806088002C333D8FCF50ACF
:10112D009000041207C5FF75F00A84E5F02404FE53
:10113D00EF75F00A84FFA806088002C333D8FCF5CA
:10114D000B9000051207C5FF75F00A84E5F0240425
:10115D00FEEF75F00A84FFA806088002C333D8FCA1
:10116D00F50C9000031207C5FF75F00A84E5F02415
:10117D0004FEEF75F00A84FFA806088002C333D879
:10118D00FCF50D9000061207C5FF75F00A84E5F019
:10119D002404FEEF75F00A84FFA806088002C3330D
:0A11AD00D8FCF50E7B007A007908EB
:0111B7002215
:10152F009000061207C575F00A8424309000071248
:10153F0008049000061207C575F00A84E5F0243000
:10154F00900008120804900009742D1208049000EE
:10155F00051207C575F00A84243090000A1208049A
:10156F009000051207C575F00A84E5F0243090004D
:10157F000B12080490000C742D1208049000041232
:10158F0007C575F00A84243090000D1208049000EE
:10159F00041207C575F00A84E5F0243090000E128E
:0915AF00080490000FE402080496
:1015B8009000021207C575F00A84243090001012BA
:1015C80008049000021207C575F00A84E5F024307B
:1015D800900011120804900012743A120804900046
:1015E800011207C575F00A8424309000131208040C
:1015F8009000011207C575F00A84E5F024309000C8
:1016080014120804900015743A1208041207ACFF6B
:1016180075F00A842430900016120804EF75F00A59
:1016280084E5F0243090001712080490000FE402BB
:021638000804A4
:101A0D007F801219F8EF30E707E4FD7F801218EBA5
:011A1D0022A6
:10192B007F801219F8AC07C200121A5CEC30050468
:0C193B0044808002547FFD7F801219E37D
:01194700227D
:0F1763008F807F057E00121772D2A27F057E0055
:10177200D3EF9400EE940040147D6E7C00ED1D705A
:0D178200011CED4C70F7EF1F70E61E80E3B8
:01178F002237
:0A1A8100C2A1C2A0121763C2A22284
:10179000E55B75F00A84F529E55B75F00A84AFF026
:1017A000752A008F2BE5292430FF1217B2E52B2470
:0217B00030FF08
:0A17B200C2A1D2A0121763C2A22246
:10194800C2A1C2A27F3C121A817F0C121A817F06A3
:0D195800121A817F01121A817F80021A810C
:0F16B3007FC0121A817A1079047BFF7D077C00BB
:0A16C2008B788A79897A8C7B8D7C05
:1016CC00E4F57DF57EC3E57E957CE57D957B501D2F
:1016DC00AB78AA79A97A857E82857D831207C5FFAE
:0D16EC001217B2057EE57E70DC057D80D80A
:0116F90022CE
:0B1A6B000000000000000000DFF62279
:10196500C2AFC2B27F32121A6BD2B27F06121A6BA5
:0B197500A2B2920430B2FDD2AFA20477
:011980002244
:02186000AE07D1
:10186200C2AF7D01ED601AC2B200005E7004C2B266
:101872008002D2B27F06121A6BD2B2ED25E0FD8051
:03188200E3D2AFFF
:011885002240
:1017E700C2AF7D01ED601EC2B20000D2B200002080
:1017F700B205F452068003ED42067F06121A6BED1E
:0918070025E0FD80DFD2AFAF0641
:0118100022B5
:1019CD00121965920320030A7FCC1218607F44120E
:0519DD001860A203B335
:0119E20022E2
:1017350012196592012001227FCC1218607FBE121A
:1017450018601217E7AC071217E7EFFEAD047C002F
:0D175500E42DFFEC3E8FF0120826A201B338
:011762002264
:0B1A7600EF1FAC0670011E4C70F62242
:041981007F0A7E005B
:10198500EF1FAA0670011E4A600DE4FDC3ED6480D9
:0719950094F850EC0D80F501
:01199C002228
:10190B0075F00A84AFF0752A008F2BE5292430FF80
:08191B00121923E52B2430FF13
:081923008F993099FDC2992251
:0817BC007A0F79387BFF7D08EC
:0617C4008B778A78897919
:1017CA00E4FEEEC39D5015AB77AA78A9798E82758F
:0C17DA0083001207C5FF1219230E80E6E1
:0117E60022E0
:100D2000E4F576D2ABD28ED2AC1217BC7BFF7A0F31
:100D300079417D171217C4E55875F00A84F529E545
:100D40005812190B7F2D121923E55975F00A84F5F5
:100D500029E55912190B7F20121923E55A75F00A5B
:100D600084F529E55A12190B7F3A121923E53075DB
:100D7000F00A84F529E53012190B7FF47E01121771
:100D8000721217BC7BFF7A0F79597D1B1217C4E5CD
:100D90005B75F00A84F529E55B75F00A84AFF075A0
:100DA0002A008F2B7BFF7A0F79757D0A1217C412E8
:100DB00019167BFF7A0F79807D0E1217C4E55775DF
:100DC000F06484F529E55775F06484E5F075F00A60
:100DD00084752A00F52BE55775F00A84AFF0752C61
:100DE000008F2D121916E52D2430FF1219237BFFD9
:100DF0007A0F798F7D021217C41217BC7FF47E011F
:100E00001217727BFF7A0F79927D171217C47A0F2F
:100E100079AA1217C0E53D75F00A84F529E53D125F
:100E2000190B7BFF7A0F79B37D0B1217C4E5287578
:100E3000F00A84F529E52812190B1217BC7FF47EFD
:100E4000011217727BFF7A0F79BF7D121217C4054A
:100E500076E57675F06484F529E57675F06484E5C9
:100E6000F075F00A84752A00F52BE57675F00A8492
:100E7000AFF0752C008F2D7BFF7A0F79D27D0A128F
:100E800017C4121916E52D2430FF121923C374FF5D
:100E90009576FF1218A9E48F27F526F525F5247B12
:100EA00064FAF9F8AE26AD25AC241208818F29E446
:100EB0007B64FAF9F8AF27AE26AD25AC2412088181
:100EC000AC00AD01AE02AF03E47B0AFAF9F81208F8
:100ED000818E2A8F2BE47B0AFAF9F8AF27AE26AD74
:100EE00025AC24120881AE02AF038E2C8F2D7BFF20
:100EF0007A0F79DE7D0E1217C4E5292430FF12190E
:100F0000237F2E12191BE52D2430FF1219237BFF9E
:100F10007A0F79EC7D041217C47FB87E0B12198505
:100F2000B2B4E576D3953D5003020E4F753802C238
:070F3000ABC28EC2ACD2B4CB
:010F37002297
:10183900D2AFC2ABC2A9758921C28CC28E758C3C4C
:10184900758AB0758DFD758BFDC2AC7598401219FE
:0718590048121A0DD2B4225F
:10000E00E532704CE5337048E5347044E5387040A5
:10001E007F80121A817BFF7A0F79F17D067C0012A8
:10002E0016C27B007A00793E12152F1215B87F8802
:10003E00121A817A0079457D087C001216C27FC2A1
:10004E00121A817B007A00794E7D087C001216C24E
:10005E00E53270030201DBAE2EAF2FAB07AA06C34B
:10006E00E5279BFFE5269AFEE5259400FDE5249401
:10007E0000FCE4FBFAF9F8D3120921400BE4F52752
:10008E00F526F525F524801FAE2EAF2FAB07AA0659
:10009E00C3E5279BF527E5269AF526E5259400F579
:1000AE0025E5249400F5247F80121A817BFF7A0FB8
:1000BE0079F87D067C001216C27F88121A817BFFAA
:1000CE007A0F79FF7D047C001216C2E47BE87A0376
:1000DE00F9F8AF3CAE3BAD3AAC39120881AC00AD8D
:1000EE0001AE02AF03E47B64FAF9F81208818F299E
:1000FE00E47B64FAF9F8AF3CAE3BAD3AAC3912088A
:10010E0081AC00AD01AE02AF03E47B0AFAF9F8123E
:10011E0008818E2A8F2BE47B0AFAF9F8AF3CAE3BAE
:10012E00AD3AAC39120881AE02AF038E2C8F2DE59D
:10013E00292430FF1217B27F2E1217AAE52D243074
:10014E00FF1217B21216B3E47BE87A03F9F8AF2761
:10015E00AE26AD25AC24120881AC00AD01AE02AFC7
:10016E0003E47B64FAF9F81208818F29E47B64FAC0
:10017E00F9F8AF27AE26AD25AC24120881AC00AD40
:10018E0001AE02AF03E47B0AFAF9F81208818E2A57
:10019E008F2BE47B0AFAF9F8AF27AE26AD25AC24F7
:1001AE00120881AE02AF038E2C8F2DE5292430FF6D
:1001BE001217B27F2E1217AAE52D2430FF1217B296
:1001CE007BFF7A10790C7D027C001216C2E533702B
:1001DE00030202F97F80121A817BFF7A10790F7D5C
:1001EE00067C001216C2C3E53364809483503F7FB1
:1001FE0088121A817BFF7A1079167D067C00121602
:10020E00C21217901216B3E55775F06484F529E5FE
:10021E005775F06484E5F075F00A84752A00F52BA5
:10022E00E55775F00A84AFF0752C000202B7E5337E
:10023E00640360030202DD7F88121A817BFF7A104D
:10024E00791D7D047C001216C2E53D75F00A84F519
:10025E0029E53D12179A1216B3E47B64FAF9F8AF4A
:10026E0027AE26AD25AC241208818F29E47B64FAD3
:10027E00F9F8AF27AE26AD25AC24120881AC00AD3F
:10028E0001AE02AF03E47B0AFAF9F81208818E2A56
:10029E008F2BE47B0AFAF9F8AF27AE26AD25AC24F6
:1002AE00120881AE02AF038E2C8F2DE5292430FF6C
:1002BE001217B27F2E1217AAE52D2430FF1217B295
:1002CE007BFF7A10790C7D027C001216C2801C7F97
:1002DE0080121A817BFF7A1079227D0E7C00121615
:1002EE00C27FB87E0B121772E4F533E53470030249
:1002FE0004436401705A7F80121A817BFF7A107951
:10030E00317D0E7C001216C27FC0121A81E558751F
:10031E00F00A84F529E55812179A7F2D1217B2E5C7
:10032E005975F00A84F529E55912179A7F2012178C
:10033E00B2E55A75F00A84F529E55A12179A7F3AF2
:10034E001217B2E53075F00A84F529E53002041C67
:10035E00E5346402706A7F80121A817BFF7A10790D
:10036E00407D057C001216C27A1079461216BC1218
:10037E0017907FC0121A817BFF7A10794E7D0A7C0E
:10038E00001216C2E55775F06484F529E55775F02D
:10039E006484E5F075F00A84752A00F52BE557752F
:1003AE00F00A84AFF0752C008F2D1217A5E52D24C1
:1003BE0030FF1217B27BFF7A10790C7D0202043ED9
:1003CE00E53464037F80704B121A817BFF7A1079BB
:1003DE00597D057C001216C27BFF7A10795F7D0570
:1003EE007C001216C2E53D75F00A84F529E53D1232
:1003FE00179A7FC0121A817BFF7A1079657D047C73
:10040E00001216C2E52875F00A84F529E5281217A0
:10041E009A8022121A817BFF7A10796A7D0A7C00FB
:10042E001216C27FC0121A817BFF7A1079757D0F6A
:10043E007C001216C2E53870030204EE6406706A80
:10044E007F80121A817BFF7A1079857D0C7C0012D9
:10045E0016C27FC0121A817B007A00797612173588
:10046E00920030007BE576C4F854F0C8E577C454AA
:10047E000F48FF75F06484F529EF75F06484E5F09C
:10048E0075F00A84752A00F52BEF75F00A84AFF02B
:10049E00752C008F2D1217A5E52D2430FF1217B2E3
:1004AE007F201217B27F430217B2E5387F80B40166
:1004BE000D121A817BFF7A1079927D0B801D121A14
:1004CE00817BFF7A10799E7D0D7C001216C27FC053
:1004DE00121A817BFF7A1079AD7D107C001216C244
:0104EE0022EB
:10140C00E53ED3943B400BE53E75F03C8485F03EC5
:10141C00053FE53FD3943B400BE53F75F03C84859D
:10142C00F03F0540E540D39417400BE54075F018AC
:10143C008485F0400542E542D3941F4009E542758E
:10144C00F01F8485F042E543D3940C4009E54375C5
:10145C00F00C8485F043E544D394644009E544756D
:10146C00F0648485F044AD3E7F801218EBAD3F7F75
:10147C00821218EBAD407F841218EBAD427F8612BE
:10148C0018EBAD437F881218EBAD447F8C1218EB30
:07149C007F017E00021985AB
:10163A00E4FEFDC2B50000C2B60000D2B70000D277
:10164A00B60000C2B6D2B70000D2B60000C2B6EFEA
:10165A007004C2B78002D2B70000D2B60000C2B688
:10166A00D2B70000E4FFD2B60000C2B60000EE25F1
:10167A00E0FEA2B7E4334EFE0FBF08EAE4FFD2B69B
:10168A000000C2B60000A2B7E433FCA80708800233
:10169A00C333D8FCFCEDA804088002C333D8FCFD90
:0816AA000FBF08DAD2B5AF064C
:0116B2002215
:10093200E4F576D2A9D28C20902B7F0AFE1219857B
:1009420020901FE532701BE5337017E5347013E514
:1009520038700F0531E531B40703E4F5317F011238
:100962001A813090FD20913412198120912BE531AA
:100972007027E5337023E534701FE538701BC2A978
:10098200C28C0532E532B4020BE4F532D2B4D2B3F2
:10099200F52EF52F7F01121A813091FD309203025C
:1009A2000A5E121981309203020A5BE5316003028A
:1009B2000A5BE5326003020A5BE5346003020A5B0C
:1009C200E5386003020A5B0533E533B4030DD2A9AF
:1009D200D28CE4F52EF52FF53DF528E5336404704D
:1009E20073C2A9C28CD2B4F52EF52FAD3D7F011290
:1009F20019B57FC87E00121985AD287F021219B57C
:100A02007FC87E00121985AD3F7F031219B57FC8DA
:100A12007E00121985AD407F041219B57FC87E0091
:100A2200121985AD427F051219B57FC87E001219D1
:100A320085AD437F061219B57FC87E00121985ADB8
:100A4200577F071219B57FC87E00121985AD5B7FEB
:100A5200081219B57F01121A813092FD30930302F8
:100A62000B0F121981309303020B0FE53160030261
:100A72000B0FE5326003020B0FE5336003020B0F2D
:100A8200E5386003020B0FC2A9C28C0534E5342499
:100A9200FE603A146055240270667F061218A98F10
:100AA200587F037E001219857F051218A98F597F7E
:100AB200037E001219857F041218A98F5A7F037EC4
:100AC200001219857F031218A98F3080157F081232
:100AD20018A98F5B7F037E001219857F071218A960
:100AE2008F577F037E0012198580157F011218A986
:100AF2008F3D7F037E001219857F021218A98F286D
:100B0200E534B40503E4F5347F01121A813094030D
:100B1200020BD57F0A7E00121772E53260047F0154
:100B220080027F00E53160047E0180027E00EE4F8C
:100B3200FFE53360047E0180027E00EE4FFF2094C9
:100B4200047E0180027E00EE5F7003020BD5C2A913
:100B5200C28CE531602A24FE6014146015146016FC
:100B620014601714601824057016053E8012053FA4
:100B7200800E0540800A0542800605438002054436
:100B8200E5326015E53C2401F53CE4353BF53BE4F8
:100B9200353AF53AE43539F539E533603324FE6008
:100BA2001F04702CE521640560020521E52125E082
:100BB20024C1F582E43410F583740193F557801053
:100BC200E522640260020522E5229010BE93F55BE5
:100BD2003094FD309503020C901219813095030276
:100BE2000C90E53260047F0180027F00E5316004F1
:100BF2007E0180027E00EE4FFFE53360047E0180BD
:100C0200027E00EE4F7003020C90C2A9C28CE53145
:100C1200602A24FE60141460151460161460171400
:100C2200601824057016153E8012153F800E15407F
:100C3200800A15428006154380021544E532601889
:100C4200E53C24FFF53CE53B34FFF53BE53A34FF58
:100C5200F53AE53934FFF539E533602F24FE601D9E
:100C6200047028E52160021521E52125E024C1F563
:100C720082E43410F583740193F557800EE5226007
:100C8200021522E5229010BE93F55B3095FD209669
:100C92002B121981209625E532B40120C2A9C28CFB
:100CA20085262E85272FE4F527F526F525F524053B
:100CB20037E537B40203E4F5373096FD20975E122C
:100CC2001981209731E538B402047F0180027F0048
:100CD200E534B404047E0180027E00EE4F6017E426
:100CE200F5340538E538B40303E4F5387F01121A08
:100CF2008120972480FB20971FE531701BE532701D
:100D020017E5337013E534700FE538700575380652
:0D0D12008003E4F5383097FD7F01121A814F
:010D1F0022B1
:10128E00E4F55C1218397B007A00795D12135985EA
:10129E005D3E855E3F855F4085604185614285622A
:1012AE0043856344E4F55C7464255CF8E6FF74459D
:1012BE00255CF8A607746D255CF8E6FF744E255C78
:1012CE00F8A607055CE55CB409DD12140C120932B0
:1012DE00E533B403047F0180027F00E53260047EB3
:1012EE000180027E00EE4F602BE4FF12163AAC072F
:1012FE00E41206F77B7F7AFB79FA783F1205E7E472
:10130E00FBFA798078BF1204F612072B8F278E26F0
:10131E008D258C2412000EE538B40103120D20E544
:10132E00326022AE26AF27EE3395E0FDFCAB3CAA31
:10133E003BA93AA839C31209215006C2B4C2B380E0
:0B134E0004D2B4D2B312198102129431
:03000B000211B827
:1011B800C0E0C0F0C083C082C0D075D000C000C0FD
:0D11C80001C002C003C004C005C006C0077E
:1011D500758C3C758AB00523E523641460030212FF
:1011E50073F523E53364036003021270AE2EAF2F4F
:1011F500FCFDAB27AA26A925A824C31209217063E3
:10120500053DAF57FCFDFEA824D31209214027AFA9
:1012150057AB07E5279BFBE5269400FAE5259400E7
:10122500F9E5249400F8AF5BE4FCFDFED312092137
:10123500402405288020C3E5579527FBE49526FA29
:10124500E49525F9E49524F8AF5BE4FCFDFED312A3
:10125500092140020528C374FF953DFFAD271219EA
:0E126500B5B2B485262E85272F80031219CD31
:10127300D007D006D005D004D003D002D001D000CF
:0B128300D0D0D082D083D0F0D0E03279
:1004EF00020797E86480F8E933E83360110460F09D
:1004FF00ED33EC337009E8FCE9FDEAFEEBFF220473
:10050F0060DED3EB9FEA9EE99DE8C2E78CF0C2F76D
:10051F0095F0400CE8CCF8E9CDF9EACEFAEBCFFB39
:10052F0012076285D0F05804700320D5B3E8047029
:10053F00075002B2D50207A192D5EC0460F7E4CCC4
:10054F00C0E0C398F8603B94186008400DD0E0FB02
:10055F00020779E4FBFAC9FC8028E830E406E4C915
:10056F00FBE4CAFCE830E305E4C9CACBFCE8540756
:10057F006010F8C3E913F9EA13FAEB13FBEC13FC61
:10058F00D8F130F52FC3E49CFCEF9BFFEE9AFEED04
:10059F0099FDD0E0FBEF4E4D4C701222DB030207AA
:1005AF009EEC2CFCEF33FFEE33FEED33FDED30E729
:1005BF00EB020779EF2BFFEE3AFEED39FDD0E0FBB2
:1005CF0050130BBB00030207A1ED13FDEE13FEEF5B
:0805DF0013FFEC13FC02077985
:1005E700EC4D6011E8497017ED33EC3304600DE40E
:1005F700FCFFFEFD22E933E8330470F80207971287
:10060700076258046009E4CC248150062850090287
:1006170007A128400302079EC0E0EB4A7044B98057
:1006270006D0E0FB02078DEF4E701CBD8008EBFF84
:10063700EAFEE9FD80EBE98DF0A4FEE5F00206D0C5
:10064700E9CDF9EAFEEBFFEF89F0A4FCE5F0CE89EE
:10065700F0A42EFFE435F0CD89F0A42DFEE435F0AB
:100667008067EF4E7005BD80D780C3EF8BF0A4ACD9
:10067700F0EE8BF0A42CFCE435F0F8EF8AF0A42C14
:10068700E5F038FCE433CB8DF0A42CFCE5F03BF827
:10069700EE8AF0A42CFCE5F038F8E433CF89F0A417
:1006A7002CFCE5F038CF3400CE89F0A42FFFE5F01D
:1006B7003EFEE433C98DF0A42EFEE5F039CD8AF075
:1006C700A42FFFE5F03EFEE43DFD33D0E0FB5007ED
:1006D7000BBB000F0207A1EC2CFCEF33FFEE33FE40
:0606E700ED33FD0207796E
:1006ED0075F020800E75F010800575F0087D007E88
:1006FD00007F003392D530D503120913EC3340102F
:10070D00EF33FFEE33FEED33FDEC33FCD5F0ED2290
:0E071D00E5F0247EA2D513CC92E7CDCEFF22CC
:10072B00EDD2E7CD33EC3392D524814006E4FFFEC6
:10073B00FDFC22FCE4CFCECDCC24E0501174FF8025
:10074B00EDC3CC13CCCD13CDCE13CECF13CF0470C2
:07075B00F030D5DE020913A6
:10076200E9D2E7C933E833F892D5EDD2E7CD33ECDD
:0707720033FC5002B2D52256
:10077900EC30E7100FBF000C0EBE00080DBD0004E1
:100789000BEB6014A2D5EB13FCED92E7FD2274FF8D
:10079900FCFDFEFF22E480F8A2D574FF13FC7D80E6
:0307A900E480EFFA
:1014AF0002128EE493A3F8E493A34003F68001F2B3
:1014BF0008DFF48029E493A3F85407240CC8C3333E
:1014CF00C4540F4420C8834004F456800146F6DF0D
:1014DF00E4800B01020408102040809016FAE47E8D
:1014EF00019360BCA3FF543F30E509541FFEE49302
:1014FF00A360010ECF54C025E060A840B8E493A3C9
:10150F00FAE493A3F8E493A3C8C582C8CAC583CAF3
:10151F00F0A3C8C582C8CAC583CADFE9DEE780BEAB
:0117340000B4
:1007AC00BB010689828A83E0225002E722BBFE024B
:0907BC00E32289828A83E493227E
:1007C500BB010CE58229F582E5833AF583E02250E9
:1007D50006E92582F8E622BBFE06E92582F8E22233
:0D07E500E58229F582E5833AF583E493224D
:1007F200BB010689828A83F0225002F722BBFE01E6
:02080200F322DF
:10080400F8BB010DE58229F582E5833AF583E8F02A
:10081400225006E92582C8F622BBFE05E92582C8D6
:02082400F222BE
:10082600BB010A89828A83F0E5F0A3F0225006F71D
:0F08360009A7F01922BBFE06F3E5F009F319221A
:1008450075F008758200EF2FFFEE33FECD33CDCC6A
:1008550033CCC58233C5829BED9AEC99E5829840ED
:100865000CF582EE9BFEED9AFDEC99FC0FD5F0D6CA
:10087500E4CEFBE4CDFAE4CCF9A88222B800C1B9F4
:100885000059BA002DEC8BF084CFCECDFCE5F0CB32
:10089500F97818EF2FFFEE33FEED33FDEC33FCEB6B
:1008A50033FB10D703994004EB99FB0FD8E5E4F926
:1008B500FA227818EF2FFFEE33FEED33FDEC33FC13
:1008C500C933C910D7059BE99A4007EC9BFCE99A07
:1008D500F90FD8E0E4C9FAE4CCFB2275F010EF2F4C
:1008E500FFEE33FEED33FDCC33CCC833C810D7074C
:1008F5009BEC9AE899400AED9BFDEC9AFCE899F887
:0E0905000FD5F0DAE4CDFBE4CCFAE4C8F92219
:0E091300C3E49FFFE49EFEE49DFDE49CFC22F5
:10092100EB9FF5F0EA9E42F0E99D42F0E89C45F02C
:0109310022A3
:00000001FF
